:100000000C9435010C9466010C9466010C94660105
:100010000C9466010C9466010C9466010C946601C4
:100020000C9466010C9466010C9466010C946601B4
:100030000C9466010C9466010C9466010C946601A4
:100040000C9466010C94A8060C9466010C9466014D
:100050000C9466010C9466010C9466010C94740572
:100060000C9466010C94E8050C94BE050C94660192
:100070000C9466010C9466010C9466010C94660164
:100080000C947A060C9466010C9466010C9466013B
:100090000C9466010C9466010C9466010C94660144
:1000A0000C9466010C9466010C944C060C94660149
:1000B0000C9466010C9466010C9466010C941E0667
:1000C0000C9466010C9466010C9466010C94660114
:1000D0000C9466010C9466010C9466010C94660104
:1000E0000C9466010C9463030C94EA010C94AD0229
:1000F0000C94D6010C94CE010C9436070C9480021B
:100100000C94B7010C949D010C94BB010C94D2018A
:100110000C94B3010C94BE010C94D0020C94DC013D
:100120000C9498010C94AF010C94DE020C94C40161
:100130000C94C8010C94BC020C9416030C94E401BA
:100140000C94E0010C94EE01000020002300260036
:1001500029002C002F0032000001000003010601DD
:10016000090100002100240027002A002D00300092
:10017000330001010000040107010A010000220010
:10018000250028002B002E00310034000201000061
:10019000050108010B010505050507050808080804
:1001A000020202020A0A080804040404010101010F
:1001B000010101010303030303030303040707070A
:1001C0000C0C0C0C0C0C0C0C0202020206060606AF
:1001D000060606060B0B0B0B0B0B0B0B010210207C
:1001E000200808102040102040800201020108046D
:1001F0000201010204081020408080402010080401
:100200000201800402018040201008040201080459
:10021000020101020408102040800102040810209D
:10022000408000000A0B02090C0D0E0807030401B0
:1002300000000000000000000000000000000000BE
:10024000000000000000000000000000000012118B
:10025000100000000000000000000000000000008E
:100260000000000000000000360711241FBECFEF81
:10027000D1E2DEBFCDBF00E00CBF1AE0A0E0B2E0EB
:10028000E6E7F6E100E00BBF02C007900D92A03C4C
:10029000B107D9F72CE0A0ECBAE001C01D92A6305E
:1002A000B207E1F711E0C5E3D1E000E006C0219715
:1002B0000109802FFE010E94310BC433D10780E079
:1002C0000807A9F70E946E070C94390B0C940000E4
:1002D000282F30E0F901EE5DFD4F9491F901E452D1
:1002E000FE4F44912A563E4FF9012491222309F4EE
:1002F00035C0992311F191509231F8F4E92FF0E0D3
:100300008827EA57FE4F8F4F0C94310BB701BB0182
:100310009801AF01B3019D01BE01C401C801CE0126
:10032000D201D601DC01E0019D01E401EA01EE0108
:10033000809180008F7780938000E22FF0E0EE0FB5
:10034000FF1FE458FE4FA591B4918FB7F894EC913C
:10035000611148C040954E234C938FBF0895809102
:1003600080008F7DE8CF80918000877FE4CF84B5C7
:100370008F7784BDE2CF84B58F7DFBCF8091B000B5
:100380008F778093B000D9CF8091B0008F7DF9CF67
:10039000809190008F7780939000CFCF80919000D4
:1003A0008F7DF9CF80919000877FF5CF8091A0005D
:1003B0008F778093A000C1CF8091A0008F7DF9CF6F
:1003C0008091A000877FF5CF809120018F77809367
:1003D0002001B3CF809120018F7DF9CF8091200142
:1003E000877FF5CF4E2BB8CFCF93DF9390E0FC0102
:1003F000E452FE4F24918A569E4FFC01849188233B
:10040000D1F090E0880F991FFC01EE59FE4FA591A5
:10041000B491FC01E458FE4FC591D49161110EC016
:100420009FB7F8948C91E22FE0958E238C932881CE
:10043000E223E8839FBFDF91CF9108958FB7F894AF
:10044000EC91E22BEC938FBFF6CF3FB7F8948091FD
:100450005C0B90915D0BA0915E0BB0915F0B26B58C
:10046000A89B05C02F3F19F00196A11DB11D3FBFEC
:10047000BA2FA92F982F8827BC01CD01620F711DBB
:10048000811D911D42E0660F771F881F991F4A95B5
:10049000D1F708958F929F92AF92BF92CF92DF9241
:1004A000EF92FF920E9425024B015C0188EEC82E5C
:1004B00083E0D82EE12CF12C0E94250268197909DD
:1004C0008A099B09683E734081059105A8F321E0E4
:1004D000C21AD108E108F10888EE880E83E0981E60
:1004E000A11CB11CC114D104E104F10429F7FF904F
:1004F000EF90DF90CF90BF90AF909F908F90089536
:10050000AF92BF92CF92DF92EF92FF920F931F9321
:10051000CF93DF936C017B018B01040F151FEB015F
:100520005E01AE18BF08C017D10759F06991D60116
:10053000ED91FC910190F081E02DC6011995892B78
:1005400079F7C501DF91CF911F910F91FF90EF9047
:10055000DF90CF90BF90AF900895FC01538D448DF4
:10056000252F30E0842F90E0821B930B541710F05E
:10057000CF96089501970895FC01918D828D98176B
:1005800061F0A28DAE0FBF2FB11D5D968C91928D43
:100590009F5F9F73928F90E008958FEF9FEF089574
:1005A000FC01918D828D981731F0828DE80FF11D3D
:1005B000858D90E008958FEF9FEF0895FC01918D58
:1005C000228D892F90E0805C9F4F821B91098F7351
:1005D0009927089580E69BE00E94DE0221E0892BA6
:1005E00009F420E0822F0895FC01A48DA80FB92FF3
:1005F000B11DA35ABF4F2C91848D90E001968F734B
:100600009927848FA689B7892C93A089B1898C9169
:10061000837080648C93938D848D981306C00288B8
:10062000F389E02D80818F7D80830895EF92FF9282
:100630000F931F93CF93DF93EC0181E0888F9B8D05
:100640008C8D98131AC0E889F989808185FF15C0BF
:100650009FB7F894EE89FF896083E889F9898081E2
:100660008370806480839FBF81E090E0DF91CF91B1
:100670001F910F91FF90EF900895F62E0B8D10E0D3
:100680000F5F1F4F0F731127E02E8C8D8E110CC042
:100690000FB607FCFACFE889F989808185FFF5CF8D
:1006A000CE010E94F402F1CFEB8DEC0FFD2FF11D76
:1006B000E35AFF4FF0829FB7F8940B8FEA89FB89CA
:1006C00080818062CFCFCF93DF93EC01888D882328
:1006D000B9F0AA89BB89E889F9898C9185FD03C0A5
:1006E000808186FD0DC00FB607FCF7CF8C9185FF8A
:1006F000F2CF808185FFEDCFCE010E94F402E9CFD9
:10070000DF91CF91089580E090E0892B29F00E943D
:10071000EA0281110E94000080E090E0892B49F0FC
:1007200080E090E0892B29F00E94000081110E9456
:10073000000080E090E0892B49F080E090E0892B78
:1007400029F00E94000081110E94000080E090E0EA
:10075000892B49F080E090E0892B29F00E9400006D
:1007600081110C94000008958F929F92AF92BF92D6
:10077000FF920F931F93CF93DF93FC01F0808FE2E2
:100780008F1508F44AC0828108E512E0081B1109A0
:1007900087FD1395000F111F000F111F8181C8E8FD
:1007A000D0E0C81BD10987FDD395CC0FDD1FCC0F3E
:1007B000DD1F4E010D2E000CAA08BB089801012E6A
:1007C000000C440B550B281939094A095B09DB0158
:1007D0000E94BB0924EB30E040E050E00E94910908
:1007E000820E931EA41EB51E8C169D062CF0E801E9
:1007F000801691060CF4E4012297CC0FDD1F2FB771
:10080000F8948F2D90E0FC01EE0FFF1FE80FF91F09
:10081000EB53F54FD283C1832FBFDF91CF911F914F
:100820000F91FF90BF90AF909F908F9008951F936E
:10083000CF93DF93EC01162F8881803308F04EC0F0
:1008400061E0812F0E94F4018881282F30E0F901B6
:10085000EE0FFF1FE20FF31FEB53F54F1F73608185
:10086000607C612B608319821A822CE0622F0E94C7
:10087000250B829FB001112430E020E0AB01420F34
:10088000531FFA01EE0FFF1FE40FF51FEB53F54F57
:10089000908196FD16C02F5F3F4F2C30310571F7C8
:1008A000813009F51092800082E0809381001092DF
:1008B000850010928400B19A80916F0082608093CD
:1008C0006F00E8818E2F90E0FC01EE0FFF1FE80F14
:1008D000F91FEB53F54F8081806480838881DF911D
:1008E000CF911F910895823061F41092900080930F
:1008F0009100109295001092940088BB8093710033
:10090000E0CF833069F41092A00082E08093A100D0
:100910001092A5001092A40089BB80937200D1CFE1
:100920008111CFCF1092200182E08093210110929B
:100930002501109224018ABB80937300C2CFAF922D
:10094000BF92CF92DF92EF92FF920F931F93CF93BC
:10095000DF936B017A01EC01C054D54F28813CE054
:10096000389F8001399F100D1124A090C40AB12C2A
:1009700027FF1FC0FB011182108288818F5F88834F
:1009800088819801280F311D87FD3A95F6012A15B7
:100990003B051CF488818C30C4F1808191810496E0
:1009A00080349C4908F473C0F601808191810496DB
:1009B00070C088819801280F311D87FD3A952A154E
:1009C0003B05DCF68881A801480F511D87FD5A952B
:1009D000FA01EE0FFF1FE40FF51FEB53F54F808177
:1009E00086FFCBCF8881F801E80FF11D87FDFA95CE
:1009F000CF01EE0FFF1FE80FF91FEB53F54F80817A
:100A000060E08F730E946801B8CF80819181288156
:100A1000A801420F511D27FD5A959A01FA01EE0FC8
:100A2000FF1FE20FF31FEB53F54F21813281820F3D
:100A3000931FF7019183808388819801280F311DCE
:100A400087FD3A95F901EE0FFF1FE20FF31FEB53FD
:100A5000F54F808186FF22C08881080F111D87FD18
:100A60001A95F801EE0FFF1FE00FF11FEB53F54F42
:100A7000808161E08F73DF91CF911F910F91FF9083
:100A8000EF90DF90CF90BF90AF900C94680180E41E
:100A90009CE9F701918380838FEF8883DF91CF9169
:100AA0001F910F91FF90EF90DF90CF90BF90AF908C
:100AB0000895FC0101900020E9F73197AF01481B30
:100AC000590BBC0180E69BE00C948002CF93DF932E
:100AD0000E945905EC0182E192E00E9459058C0FB9
:100AE0009D1FDF91CF9108951F920F920FB60F9225
:100AF00011242F933F938F939F93AF93BF93809134
:100B0000580B9091590BA0915A0BB0915B0B3091FF
:100B1000570B23E0230F2D3758F50196A11DB11D6A
:100B20002093570B8093580B9093590BA0935A0B1B
:100B3000B0935B0B80915C0B90915D0BA0915E0B71
:100B4000B0915F0B0196A11DB11D80935C0B90933A
:100B50005D0BA0935E0BB0935F0BBF91AF919F9124
:100B60008F913F912F910F900FBE0F901F9018956E
:100B700026E8230F0296A11DB11DD2CF1F920F921E
:100B80000FB60F9211240BB60F922F933F934F93F2
:100B90005F936F937F938F939F93AF93BF93EF93E5
:100BA000FF9380E69BE00E94F402FF91EF91BF91DA
:100BB000AF919F918F917F916F915F914F913F91F5
:100BC0002F910F900BBE0F900FBE0F901F90189596
:100BD0001F920F920FB60F9211240BB60F922F9304
:100BE0008F939F93EF93FF93E091700BF091710BB4
:100BF0008081E091760BF091770B82FD1DC0908192
:100C00008091790B8F5F8F7320917A0B821741F05F
:100C1000E091790BF0E0E05AF44F958F8093790BD7
:100C2000FF91EF919F918F912F910F900BBE0F909D
:100C30000FBE0F901F9018958081F2CF1F920F92D8
:100C40000FB60F9211240BB60F922F933F934F9331
:100C50005F936F937F938F939F93AF93BF93EF9324
:100C6000FF9348E251E064E271E090E080E00E948E
:100C70009F04FF91EF91BF91AF919F918F917F91D1
:100C80006F915F914F913F912F910F900BBE0F90FD
:100C90000FBE0F901F9018951F920F920FB60F92D4
:100CA00011240BB60F922F933F934F935F936F9343
:100CB0007F938F939F93AF93BF93EF93FF9348EAF4
:100CC00050E064EA70E083E090E00E949F04FF91AE
:100CD000EF91BF91AF919F918F917F916F915F91B4
:100CE0004F913F912F910F900BBE0F900FBE0F9021
:100CF0001F9018951F920F920FB60F9211240BB6EA
:100D00000F922F933F934F935F936F937F938F93A4
:100D10009F93AF93BF93EF93FF9348E950E064E94B
:100D200070E082E090E00E949F04FF91EF91BF91FC
:100D3000AF919F918F917F916F915F914F913F9173
:100D40002F910F900BBE0F900FBE0F901F90189514
:100D50001F920F920FB60F9211240BB60F922F9382
:100D60003F934F935F936F937F938F939F93AF9333
:100D7000BF93EF93FF9348E850E064E870E081E0B0
:100D800090E00E949F04FF91EF91BF91AF919F91DE
:100D90008F917F916F915F914F913F912F910F9024
:100DA0000BBE0F900FBE0F901F901895CF92DF9241
:100DB000EF92FF920F931F93E82FF92F05C0015078
:100DC00011092109310961F1908196239417B9F332
:100DD00005C0015011092109310911F190819623B3
:100DE0009413F7CFC12CD12CE12CF12C0AC08FEF3A
:100DF000C81AD80AE80AF80A0C151D052E053F0581
:100E000079F080818623841791F36C2D7D2D8E2DB2
:100E10009F2D1F910F91FF90EF90DF90CF9008953D
:100E200060E070E080E090E01F910F91FF90EF9004
:100E3000DF90CF900895FC019091C40A903398F40C
:100E400081E0890F8093C40A9083892F90E0FC0190
:100E5000EE0FFF1FE80FF91FEB53F54F88EB9BE0F8
:100E60009283818308958FEF80830895E0E6FBE00D
:100E70001382128288EE93E0A0E0B0E08483958331
:100E8000A683B78384E092E09183808385EC90E031
:100E90009587848784EC90E09787868780EC90E044
:100EA000918B808B81EC90E0938B828B82EC90E035
:100EB000958B848B86EC90E0978B868B118E128EAF
:100EC000138E148E83E09CE00E941B0780E09CE060
:100ED0000E941B078DEF9BE00C941B07CF93DF93C1
:100EE000CDB7DEB7A1970FB6F894DEBF0FBECDBF6A
:100EF000789484B5826084BD84B5816084BD85B5F5
:100F0000826085BD85B5816085BD80916E00816000
:100F100080936E00109281008091810082608093A6
:100F200081008091810081608093810080918000A8
:100F30008160809380008091B10084608093B100D3
:100F40008091B00081608093B000809191008260B8
:100F500080939100809191008160809391008091B5
:100F600090008160809390008091A10082608093C6
:100F7000A1008091A10081608093A1008091A000D8
:100F800081608093A0008091210182608093210183
:100F900080912101816080932101809120018160F5
:100FA0008093200180917A00846080937A00809100
:100FB0007A00826080937A0080917A0081608093C9
:100FC0007A0080917A00806880937A001092C10044
:100FD00063E070E083E09CE00E94170465E070E04D
:100FE00080E09CE00E94170466E070E08DEF9BE0DB
:100FF0000E94170461E089E00E94F40160E08AE049
:101000000E94F4016AE570E083E09CE00E94B40372
:101010006AE570E080E09CE00E94B4036AE070E062
:101020008DEF9BE00E94B403E091700BF091710B87
:1010300082E08083E0916C0BF0916D0B1082E09167
:101040006E0BF0916F0B8FEC80831092780BE09118
:10105000740BF091750B86E08083E091720BF09138
:10106000730B808180618083E091720BF091730B30
:10107000808188608083E091720BF091730B808196
:1010800080688083E091720BF091730B80818F7D7B
:10109000808385E192E00E9466058FE692E00E94DF
:1010A000660582EC92E00E94660583E193E00E946F
:1010B00066058DE693E00E94660582EC93E00E944F
:1010C00066058BE094E00E94660580E694E00E944D
:1010D00066058AEB94E00E9466058DE095E00E942B
:1010E000660583E695E00E9466058BEB95E00E941D
:1010F000660587E196E00E94660593E0E92EF12CF3
:1011000023E2C22ED12C36EE232E31E0332E4AE0DC
:10111000842E912CA12CB12C60E089E00E94680102
:10112000C7010197F1F761E089E00E946801C601FB
:101130000197F1F760E089E00E946801F101649194
:10114000E0EAF1E08491E82FF0E0EE0FFF1FE85BAA
:10115000FE4F8591949100E412E42FE030E0462F99
:101160000E94D606611571058105910529F06F5F12
:101170007F4F8F4F9F4F9F700E942C0A26E933E4C8
:101180004BE05DE30E94900A20E030E040E05FE346
:101190000E94900A0E94F4097093560B6093550BBD
:1011A00080E796E00E9459054090550B5090560BF1
:1011B000052C000C6608770877FE9DC06DE280E67E
:1011C0009BE00E94160322273327A9012419350921
:1011D0004609570919A2CE0181963C01CA01B901FD
:1011E000A50194010E94C309605DF30162933F0170
:1011F000211531054105510589F76114710419F074
:10120000C3010E9459058BE796E00E946605809114
:10121000550B9091560B01970E97A0F56DE270E07B
:1012200080E09CE00E94B4030E944A0266E470E001
:101230008DEF9BE00E94B4030E944A026AE570E0D1
:1012400080E09CE00E94B4030E944A0264EB70E0DC
:1012500083E09CE00E94B4030E944A026AE070E0CE
:101260008DEF9BE00E94B4030E944A026AE570E0A1
:1012700083E09CE00E94B4036AE570E080E09CE0BB
:101280000E94B4030E944A028FE796E00E9466051E
:1012900087ED96E00E94660588E297E00E94660569
:1012A00087E797E00E9466058FEC97E00E9466054D
:1012B00082E298E00E94660589E698E00E94660551
:1012C0008CEB98E00E94660584E199E00E94660537
:1012D00085E699E00E94660589EB99E00E94660523
:1012E0008FE09AE00E94660589E69AE00E94660512
:1012F0000E94830311CFA301920119A2CE0181960E
:101300003C01CA01B901A50194010E94C309605DB5
:10131000F30162933F01211531054105510589F71C
:101320006CCF052E97FB1EF400940E94A80957FD70
:1013300007D00E94C30907FC03D04EF40C94A809FF
:1013400050954095309521953F4F4F4F5F4F0895F1
:1013500090958095709561957F4F8F4F9F4F089521
:101360000E94E509A59F900DB49F900DA49F800D4C
:10137000911D11240895B7FF0C94B0090E94B00983
:10138000821B930B0895A1E21A2EAA1BBB1BFD0121
:101390000DC0AA1FBB1FEE1FFF1FA217B307E40754
:1013A000F50720F0A21BB30BE40BF50B661F771FAC
:1013B000881F991F1A9469F760957095809590958C
:1013C0009B01AC01BD01CF010895A29FB001B39F65
:1013D000C001A39F700D811D1124911DB29F700D3E
:1013E000811D1124911D08950E94FB096894B1117B
:1013F0000C948A0A08950E946F0A88F09F5798F00B
:10140000B92F9927B751B0F0E1F0660F771F881F09
:10141000991F1AF0BA95C9F714C0B13091F00E9423
:10142000890AB1E008950C94890A672F782F8827DC
:10143000B85F39F0B93FCCF3869577956795B3954A
:10144000D9F73EF490958095709561957F4F8F4FB9
:101450009F4F0895E89409C097FB3EF490958095BE
:10146000709561957F4F8F4F9F4F9923A9F0F92F6A
:1014700096E9BB279395F695879577956795B795E8
:10148000F111F8CFFAF4BB0F11F460FF1BC06F5FCE
:101490007F4F8F4F9F4F16C0882311F096E911C0E0
:1014A000772321F09EE8872F762F05C0662371F001
:1014B00096E8862F70E060E02AF09A95660F771F15
:1014C000881FDAF7880F9695879597F9089557FD45
:1014D0009058440F551F59F05F3F71F04795880FA2
:1014E00097FB991F61F09F3F79F087950895121639
:1014F00013061406551FF2CF4695F1DF08C01616E5
:1015000017061806991FF1CF869571056105089495
:101510000895E894BB2766277727CB0197F90895AC
:101520000E94A30A0C94140B0E94060B38F00E9430
:101530000D0B20F0952311F00C94FD0A0C94030B75
:1015400011240C948A0A0E94670A70F3959FC1F3D4
:10155000950F50E0551F629FF001729FBB27F00D61
:10156000B11D639FAA27F00DB11DAA1F649F6627B6
:10157000B00DA11D661F829F2227B00DA11D621F05
:10158000739FB00DA11D621F839FA00D611D221FBF
:10159000749F3327A00D611D231F849F600D211DA3
:1015A000822F762F6A2F11249F5750409AF0F1F026
:1015B00088234AF0EE0FFF1FBB1F661F771F881F8F
:1015C00091505040A9F79E3F510580F00C94FD0AC0
:1015D0000C948A0A5F3FE4F3983ED4F3869577959E
:1015E0006795B795F795E7959F5FC1F7FE2B880F35
:1015F000911D9695879597F9089597F99F6780E8CB
:1016000070E060E008959FEF80EC089500240A9454
:101610001616170618060906089500240A941216CD
:101620001306140605060895092E0394000C11F400
:10163000882352F0BB0F40F4BF2B11F460FF04C0AD
:101640006F5F7F4F8F4F9F4F0895991B79E004C0C4
:10165000991F961708F0961B881F7A95C9F78095F1
:101660000895EE0FFF1F881F8BBF0790F691E02DA6
:061670001994F894FFCF6D
:101676000000000016038002AD026303DE02BC0216
:10168600D0020D0A0056657273696F6E20322E30D5
:1016960020736574757020636F6D706C657465205A
:1016A6007769746820496D70726F766564206D6F16
:1016B600746F7220636F6E74726F6C20616C676FEB
:1016C600726974686D7320666F7220736D6F6F74C4
:1016D600686572206D6F76656D656E74732E005643
:1016E600657273696F6E20332E3020736574757062
:1016F60020636F6D706C657465207769746820412E
:1017060064646564206F62737461636C65206465EC
:1017160074656374696F6E207573696E6720756C86
:10172600747261736F6E69632073656E736F727323
:101736002E0056657273696F6E20342E30207365E5
:1017460074757020636F6D706C657465207769744D
:101756006820496E74726F64756365642062617394
:101766006963207061746866696E64696E67207467
:101776006F2061766F6964206F62737461636C6554
:10178600732E0056657273696F6E20352E30207386
:101796006574757020636F6D706C6574652077690C
:1017A600746820456E68616E63656420706F776546
:1017B6007220656666696369656E63792077697408
:1017C600682064796E616D69632073706565642055
:1017D60061646A7573746D656E74732E00566572F6
:1017E60073696F6E20362E302073657475702063B2
:1017F6006F6D706C657465207769746820416464E8
:1018060065642073656E736F722063616C696272C2
:101816006174696F6E2066756E6374696F6E616C54
:1018260069747920666F722061636375726163798A
:101836002E0056657273696F6E20372E30207365E1
:1018460074757020636F6D706C657465207769744C
:101856006820496E74656772617465642072656D8F
:101866006F746520636F6E74726F6C207669612089
:10187600426C7565746F6F74682E00566572736975
:101886006F6E20382E3020736574757020636F6D0F
:10189600706C65746520776974682041646465645A
:1018A6002064617461206C6F6767696E6720746F6E
:1018B60020747261636B206D6F76656D656E7473EF
:1018C60020616E64206F62737461636C65732E00B1
:1018D60056657273696F6E20392E30207365747584
:1018E6007020636F6D706C6574652077697468200D
:1018F600456E68616E636564206572726F722072F0
:1019060065636F76657279207768656E20616E20F3
:101916006F62737461636C6520626C6F636B7320B6
:1019260074686520706174682E0056657273696FFD
:101936006E2031302E3020736574757020636F6DA4
:10194600706C657465207769746820496E74726F6F
:101956006475636564206F626A656374207265638B
:101966006F676E6974696F6E20746F206964656E47
:1019760074696679206672756974732E005665728D
:1019860073696F6E2031312E302073657475702047
:10199600636F6D706C6574652077697468204F702D
:1019A60074696D697A65642061726D207072656311
:1019B6006973696F6E20666F72207069636B696EFA
:1019C6006720736D616C6C6572206F626A65637403
:1019D600732E0056657273696F6E2031322E302079
:1019E600736574757020636F6D706C6574652077B0
:1019F6006974682041646465642061206665656475
:101A06006261636B2073797374656D20746F2072E5
:101A160065706F7274207375636365737366756C36
:101A2600207069636B2D7570732E0056657273692D
:101A36006F6E2031332E3020736574757020636F9E
:101A46006D706C657465207769746820496E74657D
:101A560067726174656420636C6F7564207265706B
:101A66006F7274696E6720666F72206D6F76656D32
:101A7600656E747320616E64207069636B2D75707A
:101A860020646174612E0056657273696F6E203131
:101A9600342E3020736574757020636F6D706C65BD
:101AA6007465207769746820496E74726F64756313
:101AB6006564206D616368696E65206C6561726E30
:101AC600696E6720746F206F7074696D697A65201E
:101AD6006D6F76656D656E742070617468732E0027
:101AE60044697374616E63653A200020636D005625
:101AF600657273696F6E20322E30206C6F6F7020A6
:101B060072756E6E696E67207769746820496D70AC
:101B1600726F766564206D6F746F7220636F6E747A
:101B2600726F6C20616C676F726974686D73206682
:101B36006F7220736D6F6F74686572206D6F766556
:101B46006D656E74732E0056657273696F6E203301
:101B56002E30206C6F6F702072756E6E696E672006
:101B660077697468204164646564206F6273746188
:101B7600636C6520646574656374696F6E20757344
:101B8600696E6720756C747261736F6E696320731A
:101B9600656E736F72732E0056657273696F6E2071
:101BA600342E30206C6F6F702072756E6E696E67A2
:101BB600207769746820496E74726F647563656412
:101BC600206261736963207061746866696E646916
:101BD6006E6720746F2061766F6964206F6273741C
:101BE60061636C65732E0056657273696F6E20357E
:101BF6002E30206C6F6F702072756E6E696E672066
:101C06007769746820456E68616E63656420706FDD
:101C160077657220656666696369656E63792077A4
:101C26006974682064796E616D6963207370656597
:101C3600642061646A7573746D656E74732E0056E4
:101C4600657273696F6E20362E30206C6F6F702050
:101C560072756E6E696E6720776974682041646478
:101C660065642073656E736F722063616C6962725E
:101C76006174696F6E2066756E6374696F6E616CF0
:101C860069747920666F7220616363757261637926
:101C96002E0056657273696F6E20372E30206C6F7A
:101CA6006F702072756E6E696E6720776974682032
:101CB600496E74656772617465642072656D6F74D0
:101CC6006520636F6E74726F6C2076696120426C5A
:101CD6007565746F6F74682E0056657273696F6EE2
:101CE60020382E30206C6F6F702072756E6E696EA4
:101CF6006720776974682041646465642064617450
:101D060061206C6F6767696E6720746F20747261FB
:101D1600636B206D6F76656D656E747320616E649E
:101D2600206F62737461636C65732E0056657273FF
:101D3600696F6E20392E30206C6F6F702072756E51
:101D46006E696E67207769746820456E68616E6398
:101D56006564206572726F72207265636F76657254
:101D660079207768656E20616E206F627374616397
:101D76006C6520626C6F636B73207468652070619C
:101D860074682E0056657273696F6E2031302E307E
:101D9600206C6F6F702072756E6E696E6720776942
:101DA600746820496E74726F6475636564206F622F
:101DB6006A656374207265636F676E6974696F6EB6
:101DC60020746F206964656E746966792066727521
:101DD6006974732E0056657273696F6E2031312EE9
:101DE60030206C6F6F702072756E6E696E6720772B
:101DF600697468204F7074696D697A6564206172D0
:101E06006D20707265636973696F6E20666F7220EC
:101E16007069636B696E6720736D616C6C657220A7
:101E26006F626A656374732E0056657273696F6EAE
:101E36002031322E30206C6F6F702072756E6E6995
:101E46006E67207769746820416464656420612048
:101E5600666565646261636B2073797374656D2072
:101E6600746F207265706F72742073756363657327
:101E76007366756C207069636B2D7570732E0056D2
:101E8600657273696F6E2031332E30206C6F6F7000
:101E96002072756E6E696E67207769746820496E68
:101EA600746567726174656420636C6F7564207213
:101EB60065706F7274696E6720666F72206D6F76DB
:101EC600656D656E747320616E64207069636B2D39
:101ED600757020646174612E0056657273696F6E49
:101EE6002031342E30206C6F6F702072756E6E69E3
:101EF6006E67207769746820496E74726F647563C3
:101F06006564206D616368696E65206C6561726EDB
:101F1600696E6720746F206F7074696D697A6520C9
:101F26006D6F76656D656E742070617468732E00D2
:00000001FF
